:10013A000B0930313233343536373839000114007F
:03014A00010800A9
:09009A007F057E001200A3D29044
:1000A300E4FDFCC3ED9FEC9E5015E4FBFA0BBB0093
:0F00B300010AEB64954A70F50DBD00010C80E465
:0100C200221B
:0F016000C292C2918F8012009AC2907580FF22C6
:1000EA00A907EDF46007ED2480FF120160D292C2E5
:0C00FA0091898012009AC2907580FF224C
:10010600C2907F381201607F011201607F0C1201DC
:0B011600607F061201607F8002016024
:1000C300758901758C3C758AB0D2AFD2A9D28C12D6
:1000D300010674092514F8E6FFE4FD1200EA7F0A1D
:0700E3007E001200A380EB78
:100121000508E508C39414400F0514E4F508E51427
:09013100D394094003E4F5142203
:03000B0002014EA1
:10014E00C0E0C0D0758C3C758AB0120121D0D0D0E1
:02015E00E0328D
:0300000002000EED
:0C000E00787FE4F6D8FD758114020055DF
:10001A000200C3E493A3F8E493A34003F68001F239
:10002A0008DFF48029E493A3F85407240CC8C333E7
:10003A00C4540F4420C8834004F456800146F6DFB6
:10004A00E4800B010204081020408090013AE47E0B
:10005A00019360BCA3FF543F30E509541FFEE493AB
:10006A00A360010ECF54C025E060A840B8E493A372
:10007A00FAE493A3F8E493A3C8C582C8CAC583CA9D
:10008A00F0A3C8C582C8CAC583CADFE9DEE780BE55
:01014D0000B1
:00000001FF
