:1001E7003031323334353637383900323031312D0A
:1001F70031322D3233204461793A350030303A308C
:05020700303A30300028
:09022D007F057E00120236D2901A
:10023600E4FDEDC39FE49E500CE4FC0CECD39494D7
:0502460040F90D80ED00
:01024B002290
:0C024C00C292C2918F8012022DC290223B
:08020C0075F00A84E5F093FF90
:10021400AB07EDF46007ED2480FF12024CD292C2CA
:09022400918B8012022DC2902280
:10013400C2907F3812024C7F0112024C7F0F1202D0
:100144004C7F0612024C7F8012024CE4FAEA9001C2
:10015400F293FF7DFF1202140ABA10F17FC4120257
:100164004CE4FAEA90020393FF7DFF1202140ABAE8
:0201740008F190
:010176002266
:1001BA00C2A2C2A0D2A0E4FEEF1392A1D2A2EFC3C0
:1001CA0013FFC2A20EBE08F0E4FEED1392A1D2A262
:0C01DA00EDC313FDC2A20EBE08F0C2A0CF
:0101E60022F6
:10017700C2A0C2A2D2A0E4FDC2A2EF1392A1D2A252
:10018700EFC313FF0DBD08F0E4FDC2A230A10D744B
:1001970001A805088002C333D8FC4206D2A20DBDD0
:1001A70008E8C2A0EEC4540F75F00AA4FFEE540F7E
:0201B7002FFF18
:0101B9002223
:1000E700E4FD7F8E1201BAE4FD7F841201BAE4FDBC
:1000F7007F821201BA7D127F841201BA7D237F8627
:100107001201BA7D127F881201BA7D057F8A12011A
:10011700BA7D117F8C1201BAE4FD7F801201BA7D8E
:0D012700017FC01201BA7D807F8E0201BAF7
:100003001200E71201347F811201778F0BE50B7524
:10001300F00A84E5F09001E793FF7D4B120214E5AB
:100023000B75F00A8493FF7D4A1202147F83120139
:10003300778F0DE50D7D4812020CE50D75F00A84EE
:1000430093FF7D471202147F851201778F0EE50E11
:100053007D4512020CE50E75F00A8493FF7D441270
:1000630002147F871201778F08E50875F00A84E58B
:10007300F093FF7D09120214E50875F00A8493FFDB
:100083007D081202147F891201778F09E50975F043
:100093000A84E5F093FF7D06120214E50975F00A60
:1000A3008493FF7D051202147F8B1201778F0CE579
:1000B3000C75F00A84E5F093FF7D0F1202147F8D17
:1000C3001201778F0AE50A75F00A84E5F093FF7D44
:1000D30003120214E50A75F00A8493FF7D021202EB
:0400E30014020009FA
:03000000020258A1
:0C025800787FE4F6D8FD75810E020003EB
:00000001FF
