:1004FC00323031312D31312D31310030303A303014
:10050C003A30300030313233343536373839300008
:10040300021B0000021D000002280000022A000057
:100413000223000002260000021F00000221000048
:1004230002080000020A0000021400000216000085
:100433000210000002120000020C0000020E000075
:10044300011900012C00012E00012F0001300001D1
:080453002D00011A0001250033
:0904B2007F057E001204BBD2900C
:1004BB00E4FDFCC3ED9FEC9E5015E4FBFA0BBB0077
:0F04CB00010AEB64954A70F50DBD00010C80E449
:0104DA0022FF
:0F053900C292C2918F801204B2C2907580FF22CD
:0504DB0090051093FFE5
:1004E000A907EDF46007ED2480FF120539D292C20E
:0C04F0009189801204B2C2907580FF2236
:10045C00C2907F381205397F011205397F0C1205C5
:10046C00397F061205397F801205397F83120539D1
:10047C00E4F518E5189004FC93FF7DFF1204E005E9
:10048C0018E518C3940A40EB7FC4120539E4F5183B
:10049C00E51890050793FF7DFF1204E00518E51899
:0604AC00C3940840EB229E
:10051C00758901758CFC758A18D2AFD2A9D28CD290
:0D052C00A0D2A1D2A212045C12027680FBC4
:03000B0002000EE2
:10000E00C0E0C083C082C0D075D000C001C002C0A5
:10001E0003C004C005C006C007758CFC758A1805A0
:10002E0019E52D6002052CE519C3940A500302014F
:10003E006E051CE51C7002051B751900940AE51B64
:10004E009400500302016E751B00751C00051EE521
:10005E001E7002051D940AE51D9400500302016EE8
:10006E000529E52970020528751D00751E007D4BBA
:10007E001204DBC3E529940AE5289400500302011B
:10008E006E752800752900052BE52B7002052A9345
:10009E00FF7D4A1204E0D3E52B9405E52A94005027
:1000AE000302016E752A00752B000524E5247002EB
:1000BE000523E52B93FF7D4A1204E0E52493FF7D93
:1000CE00481204E0C3E524940AE523940050030289
:1000DE00016E7523007524000527E527700205269D
:1000EE00E52493FF7D481204E0E52793FF7D471238
:1000FE0004E0D3E5279405E52694004063752600B9
:10010E007527000520E5207002051FE52793FF7D6A
:10011E00471204E0E52093FF7D451204E0C3E5207D
:10012E00940AE51F94004038751F00752000E520E5
:10013E006404451F7012E52264024521700AF51F02
:10014E00F520F521F52280180522E5227002052101
:10015E00E5207D451204DBE52293FF7D441204E089
:10016E00E52D7003020257E51A7003020257E525CA
:10017E006003020257E52CC3940A5003020257058E
:10018E0009E50970020508752C00940AE50894002B
:10019E005003020257750800750900050BE50B7038
:1001AE0002050A940AE50A94005003020257051547
:1001BE00E51570020514750A00750B00940AE51416
:1001CE00940050030202577514007515000517E5CB
:1001DE001770020516D39405E5169400406B75163C
:1001EE00007517000511E51170020510940AE5104F
:1001FE00940040557510007511000513E51370023B
:10020E000512D39405E5129400403E751200751345
:10021E0000050DE50D7002050C940AE50C940040E6
:10022E0028750C00750D00E50D6404450C7012E583
:10023E002264024521700AF50CF50DF50EF50F80BE
:10024E0008050FE50F7002050EE5306002052E055C
:10025E002FD007D006D005D004D003D002D001D0C5
:08026E00D0D082D083D0E03231
:1002760030A00630A10320A203753001E52ED394E9
:100286000F500302037620A057E52D6014E51A608F
:1002960008752501E4F51A8044751A01E4F52580F0
:1002A6003CE5206403451F7012E522640245217077
:1002B6000AF51FF520F521F5228022C3E5209409D1
:1002C600E51F9400400FE4F51FF5200522E5227096
:1002D6000C052180080520E5207002051F30A0FDD1
:1002E60020A178E52D6027E5256023E4F508F509CA
:1002F600F50AF50BF514F515F516F517F510F511C4
:10030600F512F513F50CF50DF50CF50D804AC3E560
:10031600249409E5239400401DE5279405E52694D9
:10032600004013E4F523F524F526F5270520E520FE
:100336007026051F8022C3E5249409E52394004016
:100346000FE4F523F5240527E527700C052680081C
:100356000524E5247002052330A1FD20A20FE52D1A
:1003660070047F0180027F008F2D30A2FDE4F52E00
:010376002264
:0300000002037781
:0C037700787FE4F6D8FD7581300203BEEB
:1003830002051CE493A3F8E493A34003F68001F26F
:1003930008DFF48029E493A3F85407240CC8C3337B
:1003A300C4540F4420C8834004F456800146F6DF4A
:1003B300E4800B0102040810204080900403E47ED3
:1003C300019360BCA3FF543F30E509541FFEE4933F
:1003D300A360010ECF54C025E060A840B8E493A306
:1003E300FAE493A3F8E493A3C8C582C8CAC583CA31
:1003F300F0A3C8C582C8CAC583CADFE9DEE780BEE9
:01045B0000A0
:00000001FF
