:100084005F0A9DD5C6D3DB45DFD7CFDA1BDC9B8B5C
:10006400E4FDFCC3ED9FEC9E5015E4FBFA0BBB00D2
:0F007400010AEB64954A70F50DBD00010C80E4A4
:01008300225A
:10000300E4F508E5087006C2A6D2A58009E508B4A0
:10001300010AD2A6C2A5D2A4D2A7801CE508B402C5
:100023000AD2A6D2A5C2A4D2A7800DE508B40308BC
:10003300D2A6D2A5D2A4C2A7AF08EF3395E0FE742F
:10004300842FF58274003EF583E493F5807FF47E7C
:10005300011200640508C3E5086480949040A480FD
:010063009FFD
:0300000002009467
:0C009400787FE4F6D8FD758108020003B7
:00000001FF
