:0B013C003031323334353637383900AB
:090063007F057E0012006CD290B2
:10006C00E4FDFCC3ED9FEC9E5015E4FBFA0BBB00CA
:0F007C00010AEB64954A70F50DBD00010C80E49C
:01008B002252
:0C012400C292C2918F80120063C2902230
:10010B00A907EDF46007ED2480FF120124D292C2FF
:09011B00918980120063C2902258
:1000D600C2907F381201247F011201247F0C120185
:0B00E600247F061201247F8002012409
:03014700DFFE22B6
:1000F100D293C2937FF7120147D2937F1B1201471C
:0A0101002093053093FDC322D322A2
:0200B500AE0794
:1000B700E4FDD293C2937F05120147EE1392937F1B
:0E00C70014120147D293EEC313FE0DBD08E4E0
:0100D5002208
:10000300E4FEFDD293C2937F01120147D2937F0195
:1000130012014730930D7401A806088002C333D838
:10002300FC42057F11120147D293000EBE08D4AFE4
:0100330005C7
:0100340022A9
:100035001200F17FCC1200B57F441200B51200F119
:100045007FCC1200B57FBE1200B5120003AC0712BB
:0D0055000003ECC4540FFCEFC454F04CFF4A
:01006200227B
:10008C001200D61200358F0EE50E75F00A84E5F0DD
:10009C0090013C93FF7D0112010BE50E75F00A8473
:0900AC0093FFE4FD12010B80DA60
:03000000020130CA
:0C013000787FE4F6D8FD75810E02008C8B
:00000001FF
