:10020F00303132333435363738394142434445463D
:0E021F00004279203437303731363734300022
:0901F0007F057E001201F9D29096
:1001F900E4FDEDC39FE49E500CE4FC0CECD3949415
:0502090040F90D80ED3D
:01020E0022CD
:0C000300C292C2918F801201F0C29022C4
:10024800AB07EDF46007ED2480FF120003D292C2E1
:09025800918B801201F0C290228A
:10022D00C2907F381200037F011200037F0C120071
:0B023D00037F061200037F8002000315
:1001BF00780A7C007D007BFF7A0279207E007F0D1C
:1001CF001200E6D2AFD2AAC28812022DE4FA740A44
:1001DF002AF8E6FFEA2403FD1202480ABA0CEF8060
:0101EF00FE11
:10026100AD071FED600BE4FEEEC3940D50F20E805E
:01027100F795
:010272002269
:0300130002010CDB
:0B010C00C0E0C083C082C0D075D000EE
:10011700750900C2AA7F0F12026130B305D2AA0285
:1001270001B620B3077F0112026180F6E4FC75086F
:100137000030B3077F0112026180F620B3077F0109
:1001470012026180F630B3127F011202610509E5E0
:1001570009C3941E40EFD2AA805574172CF8C0002B
:10016700E6FFC313D000F6E509C3940840087417E7
:100177002CF8E64480F67509000508E508C39408DD
:1001870040AF0CEC640470A6E51AF46519701EB252
:10019700A3E519C4540F90020F93FFE4FD12024820
:0F01A700E519540F93FF7D01120248B2A3D2AAAB
:0901B600D0D0D082D083D0E03219
:0300000002027386
:0C027300787FE4F6D8FD75811A0201BF07
:10001600E709F608DFFA8046E709F208DFFA803ECC
:1000260088828C83E709F0A3DFFA8032E309F608B9
:10003600DFFA8078E309F208DFFA807088828C8321
:10004600E309F0A3DFFA806489828A83E0A3F608D5
:10005600DFFA805889828A83E0A3F208DFFA804CAF
:1000660080D280FA80C680D4806980F28033801086
:1000760080A680EA809A80A880DA80E280CA8033EF
:1000860089828A83ECFAE493A3C8C582C8CCC58367
:10009600CCF0A3C8C582C8CCC583CCDFE9DEE78037
:1000A6000D89828A83E493A3F608DFF9ECFAA9F0B6
:1000B600EDFB2289828A83ECFAE0A3C8C582C8CC0C
:1000C600C583CCF0A3C8C582C8CCC583CCDFEADE25
:1000D600E880DB89828A83E493A3F208DFF980CC87
:1000E60088F0EF60010E4E60C388F0ED2402B40480
:1000F6000050B9F582EB2402B4040050AF23234527
:06010600822390006673E5
:00000001FF
