:10018D005F0A9DD5C6D3DB45DFD75F0A9DD5C6D3A4
:04019D00DB45DFD788
:10014B001200F67E007F0ACFCDCFCECCCE1200F6BA
:10015B00748D2DF58274013CF583E493F5807F0358
:02016B007E0014
:10016D00E4FDFCC3ED9FEC9E5015E4FBFA0BBB00C8
:0F017D00010AEB64954A70F50DBD00010C80E49A
:01018C002250
:10009500E4FFFEFDD294C295C296C294D296C29553
:1000A500D295C296C295D295C296C295D295D29650
:1000B500C295D295D295C29530960D7480A8070841
:1000C5008002C313D8FC42060FBF08E8E4FF309650
:1000D5000D7401A807088002C333D8FC4205D295E8
:1000E500C2950FBF08E8D294EEB50502FF227F0046
:0100F50022E8
:10000300120095EF75F0D7A485F009F50AC2A6AEE4
:1000130009AF0A7C277D101200F674972FF58274BE
:10002300013E120163D2A6C2A5AE09AF0A7C037DCD
:10003300E81200F67C007D0A120158D2A5C2A4AED4
:1000430009AF0A7C007D641200F67C007D64120116
:100053004BD2A4C2A7AE09AF0A7C007D0A1200F6F8
:100063007C037DE81200F67E007F64CFCDCFCECC3B
:10007300CE12014BD2A7E508D39464401012009529
:10008300EF75F0D7A485F009F50AE4F50805080231
:0200930000105B
:030000000201A159
:0C01A100787FE4F6D8FD75810A020003A7
:1000F600BC000BBE0029EF8DF084FFADF022E4CCEE
:10010600F875F008EF2FFFEE33FEEC33FCEE9DECB6
:10011600984005FCEE9DFE0FD5F0E9E4CEFD22EDFC
:10012600F8F5F0EE8420D21CFEADF075F008EF2F46
:10013600FFED33FD4007985006D5F0F222C398FD37
:050146000FD5F0EA22D4
:00000001FF
