:10000300E4FDFCC3ED9FEC9E5015E4FBFA0BBB0033
:0F001300010ABA07F8BB50F50DBD00010C80E4DF
:0100220022BB
:10004100C29FD29E758920758DFD758BFDD28ED292
:060051009CD2AFD2AC22EC
:0C006B00C2AC8F993099FDC299D2AC2232
:10005700E4F9120041AF0112006B7F647E001200C9
:04006700030980F118
:03002300020026B2
:07002600C0D075D000C00737
:0F002D00C2ACAF998F993099FDC299D2ACC298ED
:05003C00D007D0D03216
:0300000002007784
:0C007700787FE4F6D8FD75810702005781
:00000001FF
