:10097A005F0A9DD5C6D3DB45DFD75F0A9DD5C6D3AF
:04098A00DB45DFD793
:100945001208F0747A2DF58274093CF583E493F569
:05095500807F047E001C
:10095A00E4FDFCC3ED9FEC9E5015E4FBFA0BBB00D3
:0F096A00010AEB64954A70F50DBD00010C80E4A5
:01097900225B
:10088F00E4FFFEFDD294C295C296C294D296C29551
:10089F00D295C296C295D295C296C295D295D2964E
:1008AF00C295D295D295C29530960D7480A807083F
:1008BF008002C313D8FC42060FBF08E8E4FF30964E
:1008CF000D7401A807088002C333D8FC4205D295E6
:1008DF00C2950FBF08E8D294EEB50502FF227F0044
:0108EF0022E6
:1008000012088FEF75F0D7A485F009F50AC2A6AEDD
:1008100009AF0A7C277D101208F074842FF58274CA
:10082000093E120950D2A6C2A5AE09AF0A7C037DCB
:10083000E81208F07C007D0A120945D2A5C2A4AED8
:1008400009AF0A7C007D641208F07E007F64CFCD82
:10085000CFCECCCE1208F0747A2FF58274093E12F6
:100860000950D2A4C2A7AE09AF0A7C277D10120995
:1008700045D2A7E508D39464401012088FEF75F0B5
:0F088000D7A485F009F50AE4F508050802080D6C
:0300000002098E64
:0C098E00787FE4F6D8FD75810A020800AD
:1008F000BC000BBE0029EF8DF084FFADF022E4CCEC
:10090000F875F008EF2FFFEE33FEEC33FCEE9DECB4
:10091000984005FCEE9DFE0FD5F0E9E4CEFD22EDFA
:10092000F8F5F0EE8420D21CFEADF075F008EF2F44
:10093000FFED33FD4007985006D5F0F222C398FD35
:050940000FD5F0EA22D2
:00000001FF
