:10085500E4FDFCC3ED9FEC9E5015E4FBFA0BBB00D9
:0F086500010ABA07F8BB50F50DBD00010C80E485
:010874002261
:100800007580FEE508C394085011AF807801EF08A9
:10081000800123D8FDF5807F0A8027E508C3941066
:100820005011AF807801EF08800123D8FDF5807F5B
:1008300019800FAF807801EF08800123D8FDF58083
:100840007F327E001208550508E508C3941840B3AE
:05085000E4F50880AE94
:030000000208757E
:0C087500787FE4F6D8FD758108020800C9
:00000001FF
