:10008F000D0842792020C0B6C9ABB7E3D2B6000D38
:10009F002651513A34373037313637343000111555
:1000AF00323031322F30322F32322031353A34382C
:0100BF000040
:0A00F100C2918F80D2907F057E003F
:1000FB00E4FDFCC3ED9FEC9E5015E4FBFA0BBB003B
:0F010B00010AEB64954A70F50DBD00010C80E40C
:01011A0022C2
:0A013D00C290C2921200F1C290229B
:04012F0029F8E6FFC6
:0A013300C290D2921200F1C2902295
:10011B007F3012013D7F0C12013D7F0112013D7FAB
:04012B008002013D10
:1000C10012011BE4F9740812012F09B90CF77F9092
:1000D10012013DE4F9742612012F09B90CF77F884A
:1000E10012013DE4F9741512012F09B910F780FED0
:03000000020003F8
:0C000300787FE4F6D8FD75813202004AD7
:10000F000200C1E493A3F8E493A34003F68001F246
:10001F0008DFF48029E493A3F85407240CC8C333F2
:10002F00C4540F4420C8834004F456800146F6DFC1
:10003F00E4800B010204081020408090008FE47EC2
:10004F00019360BCA3FF543F30E509541FFEE493B6
:10005F00A360010ECF54C025E060A840B8E493A37D
:10006F00FAE493A3F8E493A3C8C582C8CAC583CAA8
:10007F00F0A3C8C582C8CAC583CADFE9DEE780BE60
:0100C000003F
:00000001FF
