:1001F300E4FDEDC39FE49E500CE4FC0CECD394941B
:0502030040F90D80ED43
:0102080022D3
:10012C0030960630970320B2327F0A7E001201F31C
:10013C0030960630970320B2227F0A7E001201F31C
:10014C002096063096FD7F01222097063097FD7F82
:0E015C00022220B20630B2FD7F03227F002275
:03021F00010800D3
:1000DE00E508B4080050469000ECF8282873020199
:1000EE000402010902010E02011302011802011D90
:1000FE00020122020127C280050822C281050822C0
:10010E00C284050822C285050822C2A7050822C29C
:0E011E00A6050822C2A3050822C2A2050822D7
:10008F00E50824FEB4070050459000A675F003A4C0
:10009F00C58325F0C583730200BB0200C00200C5F3
:1000AF000200CA0200CF0200D40200D9D281150883
:1000BF0022D284150822D285150822D2A71508222C
:0F00CF00D2A6150822D2A3150822D2A215082204
:03022200010900CF
:10016A00E50824FD601224FE601724FE601C2406A4
:10017A007020C283D2878004C283C287D2A4D2A04D
:10018A0022C283C287C2A4D2A022C283C287C2A4C7
:03019A00C2A022DE
:060226001200DE02016A75
:06022C0012008F02016ABE
:10019D00E50924FE60111460151460192403701C08
:1001AD00C293D292050922C292D291050922C2911F
:0D01BD00D290050922C290D293750901224B
:10020900C293C292C291C290750901C283C287C2C8
:06021900A4C2A00200DEF9
:1001CA00E4F50A12020912012C8F0AE50A60F724E3
:1001DA00FE600C14600E240270EC12022680E712F4
:0901EA00022C80E212019D80DD6F
:03000000020003F8
:0C000300787FE4F6D8FD75810A02004AFF
:10000F000201CAE493A3F8E493A34003F68001F23C
:10001F0008DFF48029E493A3F85407240CC8C333F2
:10002F00C4540F4420C8834004F456800146F6DFC1
:10003F00E4800B010204081020408090021FE47E30
:10004F00019360BCA3FF543F30E509541FFEE493B6
:10005F00A360010ECF54C025E060A840B8E493A37D
:10006F00FAE493A3F8E493A3C8C582C8CAC583CAA8
:10007F00F0A3C8C582C8CAC583CADFE9DEE780BE60
:0102250000D8
:00000001FF
