:03018E00010A0063
:10013100E4FDFCC3ED9FEE6480F8EC6480985015FB
:10014100E4FBFA0BBB00010ABA07F8BB50F50DBD81
:0501510000010C80DE3E
:010156002286
:100092009000007F147E00120131AF807801EF08DA
:1000A200800123D8FDF580A3E5826407458370E3D0
:1000B2007F1E7E00120131E4F583F582AF80780164
:1000C200EF08800103D8FDF5807F1E7E001201310A
:1000D200A3E5826407458370E37F1E7E000201313F
:10017300A980E4F5807F1EFE1201317580FF120114
:030183003189803F
:010186002256
:07018700E50A6002B2A322A9
:1000E200D2AFD2A8D2887580FEE4F508F5091200D5
:1000F200921201870509E50970020508C39402E519
:1001020008940040E97580FF7F327E00120131E4DD
:10011200F508F509C3E5099405E508940050C712EE
:0F01220001731201870509E50970E9050880E5F9
:03000300020157A0
:10015700C0E0C0D075D000C007E50A70047F0180F9
:0C016700027F008F0AD007D0D0D0E03219
:03000000020006F5
:0C000600787FE4F6D8FD75810A02004DF9
:100012000200E2E493A3F8E493A34003F68001F222
:1000220008DFF48029E493A3F85407240CC8C333EF
:10003200C4540F4420C8834004F456800146F6DFBE
:10004200E4800B010204081020408090018EE47EBF
:10005200019360BCA3FF543F30E509541FFEE493B3
:10006200A360010ECF54C025E060A840B8E493A37A
:10007200FAE493A3F8E493A3C8C582C8CAC583CAA5
:10008200F0A3C8C582C8CAC583CADFE9DEE780BE5D
:01019100006D
:00000001FF
